{
	"data": {
		"bytecode": {
			"linkReferences": {},
			"object": "60806040525f80556040518060400160405280600781526020017f596f755475626500000000000000000000000000000000000000000000000000815250600190816200004d9190620002c5565b503480156200005a575f80fd5b50620003a9565b5f81519050919050565b7f4e487b71000000000000000000000000000000000000000000000000000000005f52604160045260245ffd5b7f4e487b71000000000000000000000000000000000000000000000000000000005f52602260045260245ffd5b5f6002820490506001821680620000dd57607f821691505b602082108103620000f357620000f262000098565b5b50919050565b5f819050815f5260205f209050919050565b5f6020601f8301049050919050565b5f82821b905092915050565b5f60088302620001577fffffffffffffffffffffffffffffffffffffffffffffffffffffffffffffffff826200011a565b6200016386836200011a565b95508019841693508086168417925050509392505050565b5f819050919050565b5f819050919050565b5f620001ad620001a7620001a1846200017b565b62000184565b6200017b565b9050919050565b5f819050919050565b620001c8836200018d565b620001e0620001d782620001b4565b84845462000126565b825550505050565b5f90565b620001f6620001e8565b62000203818484620001bd565b505050565b5b818110156200022a576200021e5f82620001ec565b60018101905062000209565b5050565b601f82111562000279576200024381620000f9565b6200024e846200010b565b810160208510156200025e578190505b620002766200026d856200010b565b83018262000208565b50505b505050565b5f82821c905092915050565b5f6200029b5f19846008026200027e565b1980831691505092915050565b5f620002b583836200028a565b9150826002028217905092915050565b620002d08262000061565b67ffffffffffffffff811115620002ec57620002eb6200006b565b5b620002f88254620000c5565b620003058282856200022e565b5f60209050601f8311600181146200033b575f841562000326578287015190505b620003328582620002a8565b865550620003a1565b601f1984166200034b86620000f9565b5f5b8281101562000374578489015182556001820191506020850194506020810190506200034d565b8683101562000394578489015162000390601f8916826200028a565b8355505b6001600288020188555050505b505050505050565b610fc980620003b75f395ff3fe608060405234801561000f575f80fd5b506004361061004a575f3560e01c806306fdde031461004e578063a1df8fa41461006c578063c61b5f4c14610088578063e6821bf5146100a6575b5f80fd5b6100566100de565b6040516100639190610817565b60405180910390f35b61008660048036038101906100819190610974565b61016a565b005b610090610375565b60405161009d9190610aed565b60405180910390f35b6100c060048036038101906100bb9190610b30565b61037a565b6040516100d599989796959493929190610b9a565b60405180910390f35b600180546100eb90610c83565b80601f016020809104026020016040519081016040528092919081815260200182805461011790610c83565b80156101625780601f1061013957610100808354040283529160200191610162565b820191905f5260205f20905b81548152906001019060200180831161014557829003601f168201915b505050505081565b5f875111610176575f80fd5b5f865111610182575f80fd5b5f73ffffffffffffffffffffffffffffffffffffffff163373ffffffffffffffffffffffffffffffffffffffff16036101b9575f80fd5b5f808154809291906101ca90610ce0565b91905055506040518061012001604052805f5481526020018881526020018781526020018681526020018581526020018481526020018381526020018281526020013373ffffffffffffffffffffffffffffffffffffffff1681525060025f805481526020019081526020015f205f820151815f015560208201518160010190816102559190610ec4565b50604082015181600201908161026b9190610ec4565b5060608201518160030190816102819190610ec4565b5060808201518160040190816102979190610ec4565b5060a08201518160050190816102ad9190610ec4565b5060c08201518160060190816102c39190610ec4565b5060e08201518160070190816102d99190610ec4565b50610100820151816008015f6101000a81548173ffffffffffffffffffffffffffffffffffffffff021916908373ffffffffffffffffffffffffffffffffffffffff1602179055509050507f0b0639108adcb9c8f8ce68f9c4abb1e07cd8fa50cc559b5a55a875a79b579f465f54888888888888883360405161036499989796959493929190610b9a565b60405180910390a150505050505050565b5f5481565b6002602052805f5260405f205f91509050805f01549080600101805461039f90610c83565b80601f01602080910402602001604051908101604052809291908181526020018280546103cb90610c83565b80156104165780601f106103ed57610100808354040283529160200191610416565b820191905f5260205f20905b8154815290600101906020018083116103f957829003601f168201915b50505050509080600201805461042b90610c83565b80601f016020809104026020016040519081016040528092919081815260200182805461045790610c83565b80156104a25780601f10610479576101008083540402835291602001916104a2565b820191905f5260205f20905b81548152906001019060200180831161048557829003601f168201915b5050505050908060030180546104b790610c83565b80601f01602080910402602001604051908101604052809291908181526020018280546104e390610c83565b801561052e5780601f106105055761010080835404028352916020019161052e565b820191905f5260205f20905b81548152906001019060200180831161051157829003601f168201915b50505050509080600401805461054390610c83565b80601f016020809104026020016040519081016040528092919081815260200182805461056f90610c83565b80156105ba5780601f10610591576101008083540402835291602001916105ba565b820191905f5260205f20905b81548152906001019060200180831161059d57829003601f168201915b5050505050908060050180546105cf90610c83565b80601f01602080910402602001604051908101604052809291908181526020018280546105fb90610c83565b80156106465780601f1061061d57610100808354040283529160200191610646565b820191905f5260205f20905b81548152906001019060200180831161062957829003601f168201915b50505050509080600601805461065b90610c83565b80601f016020809104026020016040519081016040528092919081815260200182805461068790610c83565b80156106d25780601f106106a9576101008083540402835291602001916106d2565b820191905f5260205f20905b8154815290600101906020018083116106b557829003601f168201915b5050505050908060070180546106e790610c83565b80601f016020809104026020016040519081016040528092919081815260200182805461071390610c83565b801561075e5780601f106107355761010080835404028352916020019161075e565b820191905f5260205f20905b81548152906001019060200180831161074157829003601f168201915b505050505090806008015f9054906101000a900473ffffffffffffffffffffffffffffffffffffffff16905089565b5f81519050919050565b5f82825260208201905092915050565b5f5b838110156107c45780820151818401526020810190506107a9565b5f8484015250505050565b5f601f19601f8301169050919050565b5f6107e98261078d565b6107f38185610797565b93506108038185602086016107a7565b61080c816107cf565b840191505092915050565b5f6020820190508181035f83015261082f81846107df565b905092915050565b5f604051905090565b5f80fd5b5f80fd5b5f80fd5b5f80fd5b7f4e487b71000000000000000000000000000000000000000000000000000000005f52604160045260245ffd5b610886826107cf565b810181811067ffffffffffffffff821117156108a5576108a4610850565b5b80604052505050565b5f6108b7610837565b90506108c3828261087d565b919050565b5f67ffffffffffffffff8211156108e2576108e1610850565b5b6108eb826107cf565b9050602081019050919050565b828183375f83830152505050565b5f610918610913846108c8565b6108ae565b9050828152602081018484840111156109345761093361084c565b5b61093f8482856108f8565b509392505050565b5f82601f83011261095b5761095a610848565b5b813561096b848260208601610906565b91505092915050565b5f805f805f805f60e0888a03121561098f5761098e610840565b5b5f88013567ffffffffffffffff8111156109ac576109ab610844565b5b6109b88a828b01610947565b975050602088013567ffffffffffffffff8111156109d9576109d8610844565b5b6109e58a828b01610947565b965050604088013567ffffffffffffffff811115610a0657610a05610844565b5b610a128a828b01610947565b955050606088013567ffffffffffffffff811115610a3357610a32610844565b5b610a3f8a828b01610947565b945050608088013567ffffffffffffffff811115610a6057610a5f610844565b5b610a6c8a828b01610947565b93505060a088013567ffffffffffffffff811115610a8d57610a8c610844565b5b610a998a828b01610947565b92505060c088013567ffffffffffffffff811115610aba57610ab9610844565b5b610ac68a828b01610947565b91505092959891949750929550565b5f819050919050565b610ae781610ad5565b82525050565b5f602082019050610b005f830184610ade565b92915050565b610b0f81610ad5565b8114610b19575f80fd5b50565b5f81359050610b2a81610b06565b92915050565b5f60208284031215610b4557610b44610840565b5b5f610b5284828501610b1c565b91505092915050565b5f73ffffffffffffffffffffffffffffffffffffffff82169050919050565b5f610b8482610b5b565b9050919050565b610b9481610b7a565b82525050565b5f61012082019050610bae5f83018c610ade565b8181036020830152610bc0818b6107df565b90508181036040830152610bd4818a6107df565b90508181036060830152610be881896107df565b90508181036080830152610bfc81886107df565b905081810360a0830152610c1081876107df565b905081810360c0830152610c2481866107df565b905081810360e0830152610c3881856107df565b9050610c48610100830184610b8b565b9a9950505050505050505050565b7f4e487b71000000000000000000000000000000000000000000000000000000005f52602260045260245ffd5b5f6002820490506001821680610c9a57607f821691505b602082108103610cad57610cac610c56565b5b50919050565b7f4e487b71000000000000000000000000000000000000000000000000000000005f52601160045260245ffd5b5f610cea82610ad5565b91507fffffffffffffffffffffffffffffffffffffffffffffffffffffffffffffffff8203610d1c57610d1b610cb3565b5b600182019050919050565b5f819050815f5260205f209050919050565b5f6020601f8301049050919050565b5f82821b905092915050565b5f60088302610d837fffffffffffffffffffffffffffffffffffffffffffffffffffffffffffffffff82610d48565b610d8d8683610d48565b95508019841693508086168417925050509392505050565b5f819050919050565b5f610dc8610dc3610dbe84610ad5565b610da5565b610ad5565b9050919050565b5f819050919050565b610de183610dae565b610df5610ded82610dcf565b848454610d54565b825550505050565b5f90565b610e09610dfd565b610e14818484610dd8565b505050565b5b81811015610e3757610e2c5f82610e01565b600181019050610e1a565b5050565b601f821115610e7c57610e4d81610d27565b610e5684610d39565b81016020851015610e65578190505b610e79610e7185610d39565b830182610e19565b50505b505050565b5f82821c905092915050565b5f610e9c5f1984600802610e81565b1980831691505092915050565b5f610eb48383610e8d565b9150826002028217905092915050565b610ecd8261078d565b67ffffffffffffffff811115610ee657610ee5610850565b5b610ef08254610c83565b610efb828285610e3b565b5f60209050601f831160018114610f2c575f8415610f1a578287015190505b610f248582610ea9565b865550610f8b565b601f198416610f3a86610d27565b5f5b82811015610f6157848901518255600182019150602085019450602081019050610f3c565b86831015610f7e5784890151610f7a601f891682610e8d565b8355505b6001600288020188555050505b50505050505056fea2646970667358221220b33fec8c2665bcf11c1d8d262f68f7c1e59c9b87f6e0541cd388fdea4ff78b6f64736f6c63430008160033",
			"opcodes": "PUSH1 0x80 PUSH1 0x40 MSTORE PUSH0 DUP1 SSTORE PUSH1 0x40 MLOAD DUP1 PUSH1 0x40 ADD PUSH1 0x40 MSTORE DUP1 PUSH1 0x7 DUP2 MSTORE PUSH1 0x20 ADD PUSH32 0x596F755475626500000000000000000000000000000000000000000000000000 DUP2 MSTORE POP PUSH1 0x1 SWAP1 DUP2 PUSH3 0x4D SWAP2 SWAP1 PUSH3 0x2C5 JUMP JUMPDEST POP CALLVALUE DUP1 ISZERO PUSH3 0x5A JUMPI PUSH0 DUP1 REVERT JUMPDEST POP PUSH3 0x3A9 JUMP JUMPDEST PUSH0 DUP2 MLOAD SWAP1 POP SWAP2 SWAP1 POP JUMP JUMPDEST PUSH32 0x4E487B7100000000000000000000000000000000000000000000000000000000 PUSH0 MSTORE PUSH1 0x41 PUSH1 0x4 MSTORE PUSH1 0x24 PUSH0 REVERT JUMPDEST PUSH32 0x4E487B7100000000000000000000000000000000000000000000000000000000 PUSH0 MSTORE PUSH1 0x22 PUSH1 0x4 MSTORE PUSH1 0x24 PUSH0 REVERT JUMPDEST PUSH0 PUSH1 0x2 DUP3 DIV SWAP1 POP PUSH1 0x1 DUP3 AND DUP1 PUSH3 0xDD JUMPI PUSH1 0x7F DUP3 AND SWAP2 POP JUMPDEST PUSH1 0x20 DUP3 LT DUP2 SUB PUSH3 0xF3 JUMPI PUSH3 0xF2 PUSH3 0x98 JUMP JUMPDEST JUMPDEST POP SWAP2 SWAP1 POP JUMP JUMPDEST PUSH0 DUP2 SWAP1 POP DUP2 PUSH0 MSTORE PUSH1 0x20 PUSH0 KECCAK256 SWAP1 POP SWAP2 SWAP1 POP JUMP JUMPDEST PUSH0 PUSH1 0x20 PUSH1 0x1F DUP4 ADD DIV SWAP1 POP SWAP2 SWAP1 POP JUMP JUMPDEST PUSH0 DUP3 DUP3 SHL SWAP1 POP SWAP3 SWAP2 POP POP JUMP JUMPDEST PUSH0 PUSH1 0x8 DUP4 MUL PUSH3 0x157 PUSH32 0xFFFFFFFFFFFFFFFFFFFFFFFFFFFFFFFFFFFFFFFFFFFFFFFFFFFFFFFFFFFFFFFF DUP3 PUSH3 0x11A JUMP JUMPDEST PUSH3 0x163 DUP7 DUP4 PUSH3 0x11A JUMP JUMPDEST SWAP6 POP DUP1 NOT DUP5 AND SWAP4 POP DUP1 DUP7 AND DUP5 OR SWAP3 POP POP POP SWAP4 SWAP3 POP POP POP JUMP JUMPDEST PUSH0 DUP2 SWAP1 POP SWAP2 SWAP1 POP JUMP JUMPDEST PUSH0 DUP2 SWAP1 POP SWAP2 SWAP1 POP JUMP JUMPDEST PUSH0 PUSH3 0x1AD PUSH3 0x1A7 PUSH3 0x1A1 DUP5 PUSH3 0x17B JUMP JUMPDEST PUSH3 0x184 JUMP JUMPDEST PUSH3 0x17B JUMP JUMPDEST SWAP1 POP SWAP2 SWAP1 POP JUMP JUMPDEST PUSH0 DUP2 SWAP1 POP SWAP2 SWAP1 POP JUMP JUMPDEST PUSH3 0x1C8 DUP4 PUSH3 0x18D JUMP JUMPDEST PUSH3 0x1E0 PUSH3 0x1D7 DUP3 PUSH3 0x1B4 JUMP JUMPDEST DUP5 DUP5 SLOAD PUSH3 0x126 JUMP JUMPDEST DUP3 SSTORE POP POP POP POP JUMP JUMPDEST PUSH0 SWAP1 JUMP JUMPDEST PUSH3 0x1F6 PUSH3 0x1E8 JUMP JUMPDEST PUSH3 0x203 DUP2 DUP5 DUP5 PUSH3 0x1BD JUMP JUMPDEST POP POP POP JUMP JUMPDEST JUMPDEST DUP2 DUP2 LT ISZERO PUSH3 0x22A JUMPI PUSH3 0x21E PUSH0 DUP3 PUSH3 0x1EC JUMP JUMPDEST PUSH1 0x1 DUP2 ADD SWAP1 POP PUSH3 0x209 JUMP JUMPDEST POP POP JUMP JUMPDEST PUSH1 0x1F DUP3 GT ISZERO PUSH3 0x279 JUMPI PUSH3 0x243 DUP2 PUSH3 0xF9 JUMP JUMPDEST PUSH3 0x24E DUP5 PUSH3 0x10B JUMP JUMPDEST DUP2 ADD PUSH1 0x20 DUP6 LT ISZERO PUSH3 0x25E JUMPI DUP2 SWAP1 POP JUMPDEST PUSH3 0x276 PUSH3 0x26D DUP6 PUSH3 0x10B JUMP JUMPDEST DUP4 ADD DUP3 PUSH3 0x208 JUMP JUMPDEST POP POP JUMPDEST POP POP POP JUMP JUMPDEST PUSH0 DUP3 DUP3 SHR SWAP1 POP SWAP3 SWAP2 POP POP JUMP JUMPDEST PUSH0 PUSH3 0x29B PUSH0 NOT DUP5 PUSH1 0x8 MUL PUSH3 0x27E JUMP JUMPDEST NOT DUP1 DUP4 AND SWAP2 POP POP SWAP3 SWAP2 POP POP JUMP JUMPDEST PUSH0 PUSH3 0x2B5 DUP4 DUP4 PUSH3 0x28A JUMP JUMPDEST SWAP2 POP DUP3 PUSH1 0x2 MUL DUP3 OR SWAP1 POP SWAP3 SWAP2 POP POP JUMP JUMPDEST PUSH3 0x2D0 DUP3 PUSH3 0x61 JUMP JUMPDEST PUSH8 0xFFFFFFFFFFFFFFFF DUP2 GT ISZERO PUSH3 0x2EC JUMPI PUSH3 0x2EB PUSH3 0x6B JUMP JUMPDEST JUMPDEST PUSH3 0x2F8 DUP3 SLOAD PUSH3 0xC5 JUMP JUMPDEST PUSH3 0x305 DUP3 DUP3 DUP6 PUSH3 0x22E JUMP JUMPDEST PUSH0 PUSH1 0x20 SWAP1 POP PUSH1 0x1F DUP4 GT PUSH1 0x1 DUP2 EQ PUSH3 0x33B JUMPI PUSH0 DUP5 ISZERO PUSH3 0x326 JUMPI DUP3 DUP8 ADD MLOAD SWAP1 POP JUMPDEST PUSH3 0x332 DUP6 DUP3 PUSH3 0x2A8 JUMP JUMPDEST DUP7 SSTORE POP PUSH3 0x3A1 JUMP JUMPDEST PUSH1 0x1F NOT DUP5 AND PUSH3 0x34B DUP7 PUSH3 0xF9 JUMP JUMPDEST PUSH0 JUMPDEST DUP3 DUP2 LT ISZERO PUSH3 0x374 JUMPI DUP5 DUP10 ADD MLOAD DUP3 SSTORE PUSH1 0x1 DUP3 ADD SWAP2 POP PUSH1 0x20 DUP6 ADD SWAP5 POP PUSH1 0x20 DUP2 ADD SWAP1 POP PUSH3 0x34D JUMP JUMPDEST DUP7 DUP4 LT ISZERO PUSH3 0x394 JUMPI DUP5 DUP10 ADD MLOAD PUSH3 0x390 PUSH1 0x1F DUP10 AND DUP3 PUSH3 0x28A JUMP JUMPDEST DUP4 SSTORE POP JUMPDEST PUSH1 0x1 PUSH1 0x2 DUP9 MUL ADD DUP9 SSTORE POP POP POP JUMPDEST POP POP POP POP POP POP JUMP JUMPDEST PUSH2 0xFC9 DUP1 PUSH3 0x3B7 PUSH0 CODECOPY PUSH0 RETURN INVALID PUSH1 0x80 PUSH1 0x40 MSTORE CALLVALUE DUP1 ISZERO PUSH2 0xF JUMPI PUSH0 DUP1 REVERT JUMPDEST POP PUSH1 0x4 CALLDATASIZE LT PUSH2 0x4A JUMPI PUSH0 CALLDATALOAD PUSH1 0xE0 SHR DUP1 PUSH4 0x6FDDE03 EQ PUSH2 0x4E JUMPI DUP1 PUSH4 0xA1DF8FA4 EQ PUSH2 0x6C JUMPI DUP1 PUSH4 0xC61B5F4C EQ PUSH2 0x88 JUMPI DUP1 PUSH4 0xE6821BF5 EQ PUSH2 0xA6 JUMPI JUMPDEST PUSH0 DUP1 REVERT JUMPDEST PUSH2 0x56 PUSH2 0xDE JUMP JUMPDEST PUSH1 0x40 MLOAD PUSH2 0x63 SWAP2 SWAP1 PUSH2 0x817 JUMP JUMPDEST PUSH1 0x40 MLOAD DUP1 SWAP2 SUB SWAP1 RETURN JUMPDEST PUSH2 0x86 PUSH1 0x4 DUP1 CALLDATASIZE SUB DUP2 ADD SWAP1 PUSH2 0x81 SWAP2 SWAP1 PUSH2 0x974 JUMP JUMPDEST PUSH2 0x16A JUMP JUMPDEST STOP JUMPDEST PUSH2 0x90 PUSH2 0x375 JUMP JUMPDEST PUSH1 0x40 MLOAD PUSH2 0x9D SWAP2 SWAP1 PUSH2 0xAED JUMP JUMPDEST PUSH1 0x40 MLOAD DUP1 SWAP2 SUB SWAP1 RETURN JUMPDEST PUSH2 0xC0 PUSH1 0x4 DUP1 CALLDATASIZE SUB DUP2 ADD SWAP1 PUSH2 0xBB SWAP2 SWAP1 PUSH2 0xB30 JUMP JUMPDEST PUSH2 0x37A JUMP JUMPDEST PUSH1 0x40 MLOAD PUSH2 0xD5 SWAP10 SWAP9 SWAP8 SWAP7 SWAP6 SWAP5 SWAP4 SWAP3 SWAP2 SWAP1 PUSH2 0xB9A JUMP JUMPDEST PUSH1 0x40 MLOAD DUP1 SWAP2 SUB SWAP1 RETURN JUMPDEST PUSH1 0x1 DUP1 SLOAD PUSH2 0xEB SWAP1 PUSH2 0xC83 JUMP JUMPDEST DUP1 PUSH1 0x1F ADD PUSH1 0x20 DUP1 SWAP2 DIV MUL PUSH1 0x20 ADD PUSH1 0x40 MLOAD SWAP1 DUP2 ADD PUSH1 0x40 MSTORE DUP1 SWAP3 SWAP2 SWAP1 DUP2 DUP2 MSTORE PUSH1 0x20 ADD DUP3 DUP1 SLOAD PUSH2 0x117 SWAP1 PUSH2 0xC83 JUMP JUMPDEST DUP1 ISZERO PUSH2 0x162 JUMPI DUP1 PUSH1 0x1F LT PUSH2 0x139 JUMPI PUSH2 0x100 DUP1 DUP4 SLOAD DIV MUL DUP4 MSTORE SWAP2 PUSH1 0x20 ADD SWAP2 PUSH2 0x162 JUMP JUMPDEST DUP3 ADD SWAP2 SWAP1 PUSH0 MSTORE PUSH1 0x20 PUSH0 KECCAK256 SWAP1 JUMPDEST DUP2 SLOAD DUP2 MSTORE SWAP1 PUSH1 0x1 ADD SWAP1 PUSH1 0x20 ADD DUP1 DUP4 GT PUSH2 0x145 JUMPI DUP3 SWAP1 SUB PUSH1 0x1F AND DUP3 ADD SWAP2 JUMPDEST POP POP POP POP POP DUP2 JUMP JUMPDEST PUSH0 DUP8 MLOAD GT PUSH2 0x176 JUMPI PUSH0 DUP1 REVERT JUMPDEST PUSH0 DUP7 MLOAD GT PUSH2 0x182 JUMPI PUSH0 DUP1 REVERT JUMPDEST PUSH0 PUSH20 0xFFFFFFFFFFFFFFFFFFFFFFFFFFFFFFFFFFFFFFFF AND CALLER PUSH20 0xFFFFFFFFFFFFFFFFFFFFFFFFFFFFFFFFFFFFFFFF AND SUB PUSH2 0x1B9 JUMPI PUSH0 DUP1 REVERT JUMPDEST PUSH0 DUP1 DUP2 SLOAD DUP1 SWAP3 SWAP2 SWAP1 PUSH2 0x1CA SWAP1 PUSH2 0xCE0 JUMP JUMPDEST SWAP2 SWAP1 POP SSTORE POP PUSH1 0x40 MLOAD DUP1 PUSH2 0x120 ADD PUSH1 0x40 MSTORE DUP1 PUSH0 SLOAD DUP2 MSTORE PUSH1 0x20 ADD DUP9 DUP2 MSTORE PUSH1 0x20 ADD DUP8 DUP2 MSTORE PUSH1 0x20 ADD DUP7 DUP2 MSTORE PUSH1 0x20 ADD DUP6 DUP2 MSTORE PUSH1 0x20 ADD DUP5 DUP2 MSTORE PUSH1 0x20 ADD DUP4 DUP2 MSTORE PUSH1 0x20 ADD DUP3 DUP2 MSTORE PUSH1 0x20 ADD CALLER PUSH20 0xFFFFFFFFFFFFFFFFFFFFFFFFFFFFFFFFFFFFFFFF AND DUP2 MSTORE POP PUSH1 0x2 PUSH0 DUP1 SLOAD DUP2 MSTORE PUSH1 0x20 ADD SWAP1 DUP2 MSTORE PUSH1 0x20 ADD PUSH0 KECCAK256 PUSH0 DUP3 ADD MLOAD DUP2 PUSH0 ADD SSTORE PUSH1 0x20 DUP3 ADD MLOAD DUP2 PUSH1 0x1 ADD SWAP1 DUP2 PUSH2 0x255 SWAP2 SWAP1 PUSH2 0xEC4 JUMP JUMPDEST POP PUSH1 0x40 DUP3 ADD MLOAD DUP2 PUSH1 0x2 ADD SWAP1 DUP2 PUSH2 0x26B SWAP2 SWAP1 PUSH2 0xEC4 JUMP JUMPDEST POP PUSH1 0x60 DUP3 ADD MLOAD DUP2 PUSH1 0x3 ADD SWAP1 DUP2 PUSH2 0x281 SWAP2 SWAP1 PUSH2 0xEC4 JUMP JUMPDEST POP PUSH1 0x80 DUP3 ADD MLOAD DUP2 PUSH1 0x4 ADD SWAP1 DUP2 PUSH2 0x297 SWAP2 SWAP1 PUSH2 0xEC4 JUMP JUMPDEST POP PUSH1 0xA0 DUP3 ADD MLOAD DUP2 PUSH1 0x5 ADD SWAP1 DUP2 PUSH2 0x2AD SWAP2 SWAP1 PUSH2 0xEC4 JUMP JUMPDEST POP PUSH1 0xC0 DUP3 ADD MLOAD DUP2 PUSH1 0x6 ADD SWAP1 DUP2 PUSH2 0x2C3 SWAP2 SWAP1 PUSH2 0xEC4 JUMP JUMPDEST POP PUSH1 0xE0 DUP3 ADD MLOAD DUP2 PUSH1 0x7 ADD SWAP1 DUP2 PUSH2 0x2D9 SWAP2 SWAP1 PUSH2 0xEC4 JUMP JUMPDEST POP PUSH2 0x100 DUP3 ADD MLOAD DUP2 PUSH1 0x8 ADD PUSH0 PUSH2 0x100 EXP DUP2 SLOAD DUP2 PUSH20 0xFFFFFFFFFFFFFFFFFFFFFFFFFFFFFFFFFFFFFFFF MUL NOT AND SWAP1 DUP4 PUSH20 0xFFFFFFFFFFFFFFFFFFFFFFFFFFFFFFFFFFFFFFFF AND MUL OR SWAP1 SSTORE POP SWAP1 POP POP PUSH32 0xB0639108ADCB9C8F8CE68F9C4ABB1E07CD8FA50CC559B5A55A875A79B579F46 PUSH0 SLOAD DUP9 DUP9 DUP9 DUP9 DUP9 DUP9 DUP9 CALLER PUSH1 0x40 MLOAD PUSH2 0x364 SWAP10 SWAP9 SWAP8 SWAP7 SWAP6 SWAP5 SWAP4 SWAP3 SWAP2 SWAP1 PUSH2 0xB9A JUMP JUMPDEST PUSH1 0x40 MLOAD DUP1 SWAP2 SUB SWAP1 LOG1 POP POP POP POP POP POP POP JUMP JUMPDEST PUSH0 SLOAD DUP2 JUMP JUMPDEST PUSH1 0x2 PUSH1 0x20 MSTORE DUP1 PUSH0 MSTORE PUSH1 0x40 PUSH0 KECCAK256 PUSH0 SWAP2 POP SWAP1 POP DUP1 PUSH0 ADD SLOAD SWAP1 DUP1 PUSH1 0x1 ADD DUP1 SLOAD PUSH2 0x39F SWAP1 PUSH2 0xC83 JUMP JUMPDEST DUP1 PUSH1 0x1F ADD PUSH1 0x20 DUP1 SWAP2 DIV MUL PUSH1 0x20 ADD PUSH1 0x40 MLOAD SWAP1 DUP2 ADD PUSH1 0x40 MSTORE DUP1 SWAP3 SWAP2 SWAP1 DUP2 DUP2 MSTORE PUSH1 0x20 ADD DUP3 DUP1 SLOAD PUSH2 0x3CB SWAP1 PUSH2 0xC83 JUMP JUMPDEST DUP1 ISZERO PUSH2 0x416 JUMPI DUP1 PUSH1 0x1F LT PUSH2 0x3ED JUMPI PUSH2 0x100 DUP1 DUP4 SLOAD DIV MUL DUP4 MSTORE SWAP2 PUSH1 0x20 ADD SWAP2 PUSH2 0x416 JUMP JUMPDEST DUP3 ADD SWAP2 SWAP1 PUSH0 MSTORE PUSH1 0x20 PUSH0 KECCAK256 SWAP1 JUMPDEST DUP2 SLOAD DUP2 MSTORE SWAP1 PUSH1 0x1 ADD SWAP1 PUSH1 0x20 ADD DUP1 DUP4 GT PUSH2 0x3F9 JUMPI DUP3 SWAP1 SUB PUSH1 0x1F AND DUP3 ADD SWAP2 JUMPDEST POP POP POP POP POP SWAP1 DUP1 PUSH1 0x2 ADD DUP1 SLOAD PUSH2 0x42B SWAP1 PUSH2 0xC83 JUMP JUMPDEST DUP1 PUSH1 0x1F ADD PUSH1 0x20 DUP1 SWAP2 DIV MUL PUSH1 0x20 ADD PUSH1 0x40 MLOAD SWAP1 DUP2 ADD PUSH1 0x40 MSTORE DUP1 SWAP3 SWAP2 SWAP1 DUP2 DUP2 MSTORE PUSH1 0x20 ADD DUP3 DUP1 SLOAD PUSH2 0x457 SWAP1 PUSH2 0xC83 JUMP JUMPDEST DUP1 ISZERO PUSH2 0x4A2 JUMPI DUP1 PUSH1 0x1F LT PUSH2 0x479 JUMPI PUSH2 0x100 DUP1 DUP4 SLOAD DIV MUL DUP4 MSTORE SWAP2 PUSH1 0x20 ADD SWAP2 PUSH2 0x4A2 JUMP JUMPDEST DUP3 ADD SWAP2 SWAP1 PUSH0 MSTORE PUSH1 0x20 PUSH0 KECCAK256 SWAP1 JUMPDEST DUP2 SLOAD DUP2 MSTORE SWAP1 PUSH1 0x1 ADD SWAP1 PUSH1 0x20 ADD DUP1 DUP4 GT PUSH2 0x485 JUMPI DUP3 SWAP1 SUB PUSH1 0x1F AND DUP3 ADD SWAP2 JUMPDEST POP POP POP POP POP SWAP1 DUP1 PUSH1 0x3 ADD DUP1 SLOAD PUSH2 0x4B7 SWAP1 PUSH2 0xC83 JUMP JUMPDEST DUP1 PUSH1 0x1F ADD PUSH1 0x20 DUP1 SWAP2 DIV MUL PUSH1 0x20 ADD PUSH1 0x40 MLOAD SWAP1 DUP2 ADD PUSH1 0x40 MSTORE DUP1 SWAP3 SWAP2 SWAP1 DUP2 DUP2 MSTORE PUSH1 0x20 ADD DUP3 DUP1 SLOAD PUSH2 0x4E3 SWAP1 PUSH2 0xC83 JUMP JUMPDEST DUP1 ISZERO PUSH2 0x52E JUMPI DUP1 PUSH1 0x1F LT PUSH2 0x505 JUMPI PUSH2 0x100 DUP1 DUP4 SLOAD DIV MUL DUP4 MSTORE SWAP2 PUSH1 0x20 ADD SWAP2 PUSH2 0x52E JUMP JUMPDEST DUP3 ADD SWAP2 SWAP1 PUSH0 MSTORE PUSH1 0x20 PUSH0 KECCAK256 SWAP1 JUMPDEST DUP2 SLOAD DUP2 MSTORE SWAP1 PUSH1 0x1 ADD SWAP1 PUSH1 0x20 ADD DUP1 DUP4 GT PUSH2 0x511 JUMPI DUP3 SWAP1 SUB PUSH1 0x1F AND DUP3 ADD SWAP2 JUMPDEST POP POP POP POP POP SWAP1 DUP1 PUSH1 0x4 ADD DUP1 SLOAD PUSH2 0x543 SWAP1 PUSH2 0xC83 JUMP JUMPDEST DUP1 PUSH1 0x1F ADD PUSH1 0x20 DUP1 SWAP2 DIV MUL PUSH1 0x20 ADD PUSH1 0x40 MLOAD SWAP1 DUP2 ADD PUSH1 0x40 MSTORE DUP1 SWAP3 SWAP2 SWAP1 DUP2 DUP2 MSTORE PUSH1 0x20 ADD DUP3 DUP1 SLOAD PUSH2 0x56F SWAP1 PUSH2 0xC83 JUMP JUMPDEST DUP1 ISZERO PUSH2 0x5BA JUMPI DUP1 PUSH1 0x1F LT PUSH2 0x591 JUMPI PUSH2 0x100 DUP1 DUP4 SLOAD DIV MUL DUP4 MSTORE SWAP2 PUSH1 0x20 ADD SWAP2 PUSH2 0x5BA JUMP JUMPDEST DUP3 ADD SWAP2 SWAP1 PUSH0 MSTORE PUSH1 0x20 PUSH0 KECCAK256 SWAP1 JUMPDEST DUP2 SLOAD DUP2 MSTORE SWAP1 PUSH1 0x1 ADD SWAP1 PUSH1 0x20 ADD DUP1 DUP4 GT PUSH2 0x59D JUMPI DUP3 SWAP1 SUB PUSH1 0x1F AND DUP3 ADD SWAP2 JUMPDEST POP POP POP POP POP SWAP1 DUP1 PUSH1 0x5 ADD DUP1 SLOAD PUSH2 0x5CF SWAP1 PUSH2 0xC83 JUMP JUMPDEST DUP1 PUSH1 0x1F ADD PUSH1 0x20 DUP1 SWAP2 DIV MUL PUSH1 0x20 ADD PUSH1 0x40 MLOAD SWAP1 DUP2 ADD PUSH1 0x40 MSTORE DUP1 SWAP3 SWAP2 SWAP1 DUP2 DUP2 MSTORE PUSH1 0x20 ADD DUP3 DUP1 SLOAD PUSH2 0x5FB SWAP1 PUSH2 0xC83 JUMP JUMPDEST DUP1 ISZERO PUSH2 0x646 JUMPI DUP1 PUSH1 0x1F LT PUSH2 0x61D JUMPI PUSH2 0x100 DUP1 DUP4 SLOAD DIV MUL DUP4 MSTORE SWAP2 PUSH1 0x20 ADD SWAP2 PUSH2 0x646 JUMP JUMPDEST DUP3 ADD SWAP2 SWAP1 PUSH0 MSTORE PUSH1 0x20 PUSH0 KECCAK256 SWAP1 JUMPDEST DUP2 SLOAD DUP2 MSTORE SWAP1 PUSH1 0x1 ADD SWAP1 PUSH1 0x20 ADD DUP1 DUP4 GT PUSH2 0x629 JUMPI DUP3 SWAP1 SUB PUSH1 0x1F AND DUP3 ADD SWAP2 JUMPDEST POP POP POP POP POP SWAP1 DUP1 PUSH1 0x6 ADD DUP1 SLOAD PUSH2 0x65B SWAP1 PUSH2 0xC83 JUMP JUMPDEST DUP1 PUSH1 0x1F ADD PUSH1 0x20 DUP1 SWAP2 DIV MUL PUSH1 0x20 ADD PUSH1 0x40 MLOAD SWAP1 DUP2 ADD PUSH1 0x40 MSTORE DUP1 SWAP3 SWAP2 SWAP1 DUP2 DUP2 MSTORE PUSH1 0x20 ADD DUP3 DUP1 SLOAD PUSH2 0x687 SWAP1 PUSH2 0xC83 JUMP JUMPDEST DUP1 ISZERO PUSH2 0x6D2 JUMPI DUP1 PUSH1 0x1F LT PUSH2 0x6A9 JUMPI PUSH2 0x100 DUP1 DUP4 SLOAD DIV MUL DUP4 MSTORE SWAP2 PUSH1 0x20 ADD SWAP2 PUSH2 0x6D2 JUMP JUMPDEST DUP3 ADD SWAP2 SWAP1 PUSH0 MSTORE PUSH1 0x20 PUSH0 KECCAK256 SWAP1 JUMPDEST DUP2 SLOAD DUP2 MSTORE SWAP1 PUSH1 0x1 ADD SWAP1 PUSH1 0x20 ADD DUP1 DUP4 GT PUSH2 0x6B5 JUMPI DUP3 SWAP1 SUB PUSH1 0x1F AND DUP3 ADD SWAP2 JUMPDEST POP POP POP POP POP SWAP1 DUP1 PUSH1 0x7 ADD DUP1 SLOAD PUSH2 0x6E7 SWAP1 PUSH2 0xC83 JUMP JUMPDEST DUP1 PUSH1 0x1F ADD PUSH1 0x20 DUP1 SWAP2 DIV MUL PUSH1 0x20 ADD PUSH1 0x40 MLOAD SWAP1 DUP2 ADD PUSH1 0x40 MSTORE DUP1 SWAP3 SWAP2 SWAP1 DUP2 DUP2 MSTORE PUSH1 0x20 ADD DUP3 DUP1 SLOAD PUSH2 0x713 SWAP1 PUSH2 0xC83 JUMP JUMPDEST DUP1 ISZERO PUSH2 0x75E JUMPI DUP1 PUSH1 0x1F LT PUSH2 0x735 JUMPI PUSH2 0x100 DUP1 DUP4 SLOAD DIV MUL DUP4 MSTORE SWAP2 PUSH1 0x20 ADD SWAP2 PUSH2 0x75E JUMP JUMPDEST DUP3 ADD SWAP2 SWAP1 PUSH0 MSTORE PUSH1 0x20 PUSH0 KECCAK256 SWAP1 JUMPDEST DUP2 SLOAD DUP2 MSTORE SWAP1 PUSH1 0x1 ADD SWAP1 PUSH1 0x20 ADD DUP1 DUP4 GT PUSH2 0x741 JUMPI DUP3 SWAP1 SUB PUSH1 0x1F AND DUP3 ADD SWAP2 JUMPDEST POP POP POP POP POP SWAP1 DUP1 PUSH1 0x8 ADD PUSH0 SWAP1 SLOAD SWAP1 PUSH2 0x100 EXP SWAP1 DIV PUSH20 0xFFFFFFFFFFFFFFFFFFFFFFFFFFFFFFFFFFFFFFFF AND SWAP1 POP DUP10 JUMP JUMPDEST PUSH0 DUP2 MLOAD SWAP1 POP SWAP2 SWAP1 POP JUMP JUMPDEST PUSH0 DUP3 DUP3 MSTORE PUSH1 0x20 DUP3 ADD SWAP1 POP SWAP3 SWAP2 POP POP JUMP JUMPDEST PUSH0 JUMPDEST DUP4 DUP2 LT ISZERO PUSH2 0x7C4 JUMPI DUP1 DUP3 ADD MLOAD DUP2 DUP5 ADD MSTORE PUSH1 0x20 DUP2 ADD SWAP1 POP PUSH2 0x7A9 JUMP JUMPDEST PUSH0 DUP5 DUP5 ADD MSTORE POP POP POP POP JUMP JUMPDEST PUSH0 PUSH1 0x1F NOT PUSH1 0x1F DUP4 ADD AND SWAP1 POP SWAP2 SWAP1 POP JUMP JUMPDEST PUSH0 PUSH2 0x7E9 DUP3 PUSH2 0x78D JUMP JUMPDEST PUSH2 0x7F3 DUP2 DUP6 PUSH2 0x797 JUMP JUMPDEST SWAP4 POP PUSH2 0x803 DUP2 DUP6 PUSH1 0x20 DUP7 ADD PUSH2 0x7A7 JUMP JUMPDEST PUSH2 0x80C DUP2 PUSH2 0x7CF JUMP JUMPDEST DUP5 ADD SWAP2 POP POP SWAP3 SWAP2 POP POP JUMP JUMPDEST PUSH0 PUSH1 0x20 DUP3 ADD SWAP1 POP DUP2 DUP2 SUB PUSH0 DUP4 ADD MSTORE PUSH2 0x82F DUP2 DUP5 PUSH2 0x7DF JUMP JUMPDEST SWAP1 POP SWAP3 SWAP2 POP POP JUMP JUMPDEST PUSH0 PUSH1 0x40 MLOAD SWAP1 POP SWAP1 JUMP JUMPDEST PUSH0 DUP1 REVERT JUMPDEST PUSH0 DUP1 REVERT JUMPDEST PUSH0 DUP1 REVERT JUMPDEST PUSH0 DUP1 REVERT JUMPDEST PUSH32 0x4E487B7100000000000000000000000000000000000000000000000000000000 PUSH0 MSTORE PUSH1 0x41 PUSH1 0x4 MSTORE PUSH1 0x24 PUSH0 REVERT JUMPDEST PUSH2 0x886 DUP3 PUSH2 0x7CF JUMP JUMPDEST DUP2 ADD DUP2 DUP2 LT PUSH8 0xFFFFFFFFFFFFFFFF DUP3 GT OR ISZERO PUSH2 0x8A5 JUMPI PUSH2 0x8A4 PUSH2 0x850 JUMP JUMPDEST JUMPDEST DUP1 PUSH1 0x40 MSTORE POP POP POP JUMP JUMPDEST PUSH0 PUSH2 0x8B7 PUSH2 0x837 JUMP JUMPDEST SWAP1 POP PUSH2 0x8C3 DUP3 DUP3 PUSH2 0x87D JUMP JUMPDEST SWAP2 SWAP1 POP JUMP JUMPDEST PUSH0 PUSH8 0xFFFFFFFFFFFFFFFF DUP3 GT ISZERO PUSH2 0x8E2 JUMPI PUSH2 0x8E1 PUSH2 0x850 JUMP JUMPDEST JUMPDEST PUSH2 0x8EB DUP3 PUSH2 0x7CF JUMP JUMPDEST SWAP1 POP PUSH1 0x20 DUP2 ADD SWAP1 POP SWAP2 SWAP1 POP JUMP JUMPDEST DUP3 DUP2 DUP4 CALLDATACOPY PUSH0 DUP4 DUP4 ADD MSTORE POP POP POP JUMP JUMPDEST PUSH0 PUSH2 0x918 PUSH2 0x913 DUP5 PUSH2 0x8C8 JUMP JUMPDEST PUSH2 0x8AE JUMP JUMPDEST SWAP1 POP DUP3 DUP2 MSTORE PUSH1 0x20 DUP2 ADD DUP5 DUP5 DUP5 ADD GT ISZERO PUSH2 0x934 JUMPI PUSH2 0x933 PUSH2 0x84C JUMP JUMPDEST JUMPDEST PUSH2 0x93F DUP5 DUP3 DUP6 PUSH2 0x8F8 JUMP JUMPDEST POP SWAP4 SWAP3 POP POP POP JUMP JUMPDEST PUSH0 DUP3 PUSH1 0x1F DUP4 ADD SLT PUSH2 0x95B JUMPI PUSH2 0x95A PUSH2 0x848 JUMP JUMPDEST JUMPDEST DUP2 CALLDATALOAD PUSH2 0x96B DUP5 DUP3 PUSH1 0x20 DUP7 ADD PUSH2 0x906 JUMP JUMPDEST SWAP2 POP POP SWAP3 SWAP2 POP POP JUMP JUMPDEST PUSH0 DUP1 PUSH0 DUP1 PUSH0 DUP1 PUSH0 PUSH1 0xE0 DUP9 DUP11 SUB SLT ISZERO PUSH2 0x98F JUMPI PUSH2 0x98E PUSH2 0x840 JUMP JUMPDEST JUMPDEST PUSH0 DUP9 ADD CALLDATALOAD PUSH8 0xFFFFFFFFFFFFFFFF DUP2 GT ISZERO PUSH2 0x9AC JUMPI PUSH2 0x9AB PUSH2 0x844 JUMP JUMPDEST JUMPDEST PUSH2 0x9B8 DUP11 DUP3 DUP12 ADD PUSH2 0x947 JUMP JUMPDEST SWAP8 POP POP PUSH1 0x20 DUP9 ADD CALLDATALOAD PUSH8 0xFFFFFFFFFFFFFFFF DUP2 GT ISZERO PUSH2 0x9D9 JUMPI PUSH2 0x9D8 PUSH2 0x844 JUMP JUMPDEST JUMPDEST PUSH2 0x9E5 DUP11 DUP3 DUP12 ADD PUSH2 0x947 JUMP JUMPDEST SWAP7 POP POP PUSH1 0x40 DUP9 ADD CALLDATALOAD PUSH8 0xFFFFFFFFFFFFFFFF DUP2 GT ISZERO PUSH2 0xA06 JUMPI PUSH2 0xA05 PUSH2 0x844 JUMP JUMPDEST JUMPDEST PUSH2 0xA12 DUP11 DUP3 DUP12 ADD PUSH2 0x947 JUMP JUMPDEST SWAP6 POP POP PUSH1 0x60 DUP9 ADD CALLDATALOAD PUSH8 0xFFFFFFFFFFFFFFFF DUP2 GT ISZERO PUSH2 0xA33 JUMPI PUSH2 0xA32 PUSH2 0x844 JUMP JUMPDEST JUMPDEST PUSH2 0xA3F DUP11 DUP3 DUP12 ADD PUSH2 0x947 JUMP JUMPDEST SWAP5 POP POP PUSH1 0x80 DUP9 ADD CALLDATALOAD PUSH8 0xFFFFFFFFFFFFFFFF DUP2 GT ISZERO PUSH2 0xA60 JUMPI PUSH2 0xA5F PUSH2 0x844 JUMP JUMPDEST JUMPDEST PUSH2 0xA6C DUP11 DUP3 DUP12 ADD PUSH2 0x947 JUMP JUMPDEST SWAP4 POP POP PUSH1 0xA0 DUP9 ADD CALLDATALOAD PUSH8 0xFFFFFFFFFFFFFFFF DUP2 GT ISZERO PUSH2 0xA8D JUMPI PUSH2 0xA8C PUSH2 0x844 JUMP JUMPDEST JUMPDEST PUSH2 0xA99 DUP11 DUP3 DUP12 ADD PUSH2 0x947 JUMP JUMPDEST SWAP3 POP POP PUSH1 0xC0 DUP9 ADD CALLDATALOAD PUSH8 0xFFFFFFFFFFFFFFFF DUP2 GT ISZERO PUSH2 0xABA JUMPI PUSH2 0xAB9 PUSH2 0x844 JUMP JUMPDEST JUMPDEST PUSH2 0xAC6 DUP11 DUP3 DUP12 ADD PUSH2 0x947 JUMP JUMPDEST SWAP2 POP POP SWAP3 SWAP6 SWAP9 SWAP2 SWAP5 SWAP8 POP SWAP3 SWAP6 POP JUMP JUMPDEST PUSH0 DUP2 SWAP1 POP SWAP2 SWAP1 POP JUMP JUMPDEST PUSH2 0xAE7 DUP2 PUSH2 0xAD5 JUMP JUMPDEST DUP3 MSTORE POP POP JUMP JUMPDEST PUSH0 PUSH1 0x20 DUP3 ADD SWAP1 POP PUSH2 0xB00 PUSH0 DUP4 ADD DUP5 PUSH2 0xADE JUMP JUMPDEST SWAP3 SWAP2 POP POP JUMP JUMPDEST PUSH2 0xB0F DUP2 PUSH2 0xAD5 JUMP JUMPDEST DUP2 EQ PUSH2 0xB19 JUMPI PUSH0 DUP1 REVERT JUMPDEST POP JUMP JUMPDEST PUSH0 DUP2 CALLDATALOAD SWAP1 POP PUSH2 0xB2A DUP2 PUSH2 0xB06 JUMP JUMPDEST SWAP3 SWAP2 POP POP JUMP JUMPDEST PUSH0 PUSH1 0x20 DUP3 DUP5 SUB SLT ISZERO PUSH2 0xB45 JUMPI PUSH2 0xB44 PUSH2 0x840 JUMP JUMPDEST JUMPDEST PUSH0 PUSH2 0xB52 DUP5 DUP3 DUP6 ADD PUSH2 0xB1C JUMP JUMPDEST SWAP2 POP POP SWAP3 SWAP2 POP POP JUMP JUMPDEST PUSH0 PUSH20 0xFFFFFFFFFFFFFFFFFFFFFFFFFFFFFFFFFFFFFFFF DUP3 AND SWAP1 POP SWAP2 SWAP1 POP JUMP JUMPDEST PUSH0 PUSH2 0xB84 DUP3 PUSH2 0xB5B JUMP JUMPDEST SWAP1 POP SWAP2 SWAP1 POP JUMP JUMPDEST PUSH2 0xB94 DUP2 PUSH2 0xB7A JUMP JUMPDEST DUP3 MSTORE POP POP JUMP JUMPDEST PUSH0 PUSH2 0x120 DUP3 ADD SWAP1 POP PUSH2 0xBAE PUSH0 DUP4 ADD DUP13 PUSH2 0xADE JUMP JUMPDEST DUP2 DUP2 SUB PUSH1 0x20 DUP4 ADD MSTORE PUSH2 0xBC0 DUP2 DUP12 PUSH2 0x7DF JUMP JUMPDEST SWAP1 POP DUP2 DUP2 SUB PUSH1 0x40 DUP4 ADD MSTORE PUSH2 0xBD4 DUP2 DUP11 PUSH2 0x7DF JUMP JUMPDEST SWAP1 POP DUP2 DUP2 SUB PUSH1 0x60 DUP4 ADD MSTORE PUSH2 0xBE8 DUP2 DUP10 PUSH2 0x7DF JUMP JUMPDEST SWAP1 POP DUP2 DUP2 SUB PUSH1 0x80 DUP4 ADD MSTORE PUSH2 0xBFC DUP2 DUP9 PUSH2 0x7DF JUMP JUMPDEST SWAP1 POP DUP2 DUP2 SUB PUSH1 0xA0 DUP4 ADD MSTORE PUSH2 0xC10 DUP2 DUP8 PUSH2 0x7DF JUMP JUMPDEST SWAP1 POP DUP2 DUP2 SUB PUSH1 0xC0 DUP4 ADD MSTORE PUSH2 0xC24 DUP2 DUP7 PUSH2 0x7DF JUMP JUMPDEST SWAP1 POP DUP2 DUP2 SUB PUSH1 0xE0 DUP4 ADD MSTORE PUSH2 0xC38 DUP2 DUP6 PUSH2 0x7DF JUMP JUMPDEST SWAP1 POP PUSH2 0xC48 PUSH2 0x100 DUP4 ADD DUP5 PUSH2 0xB8B JUMP JUMPDEST SWAP11 SWAP10 POP POP POP POP POP POP POP POP POP POP JUMP JUMPDEST PUSH32 0x4E487B7100000000000000000000000000000000000000000000000000000000 PUSH0 MSTORE PUSH1 0x22 PUSH1 0x4 MSTORE PUSH1 0x24 PUSH0 REVERT JUMPDEST PUSH0 PUSH1 0x2 DUP3 DIV SWAP1 POP PUSH1 0x1 DUP3 AND DUP1 PUSH2 0xC9A JUMPI PUSH1 0x7F DUP3 AND SWAP2 POP JUMPDEST PUSH1 0x20 DUP3 LT DUP2 SUB PUSH2 0xCAD JUMPI PUSH2 0xCAC PUSH2 0xC56 JUMP JUMPDEST JUMPDEST POP SWAP2 SWAP1 POP JUMP JUMPDEST PUSH32 0x4E487B7100000000000000000000000000000000000000000000000000000000 PUSH0 MSTORE PUSH1 0x11 PUSH1 0x4 MSTORE PUSH1 0x24 PUSH0 REVERT JUMPDEST PUSH0 PUSH2 0xCEA DUP3 PUSH2 0xAD5 JUMP JUMPDEST SWAP2 POP PUSH32 0xFFFFFFFFFFFFFFFFFFFFFFFFFFFFFFFFFFFFFFFFFFFFFFFFFFFFFFFFFFFFFFFF DUP3 SUB PUSH2 0xD1C JUMPI PUSH2 0xD1B PUSH2 0xCB3 JUMP JUMPDEST JUMPDEST PUSH1 0x1 DUP3 ADD SWAP1 POP SWAP2 SWAP1 POP JUMP JUMPDEST PUSH0 DUP2 SWAP1 POP DUP2 PUSH0 MSTORE PUSH1 0x20 PUSH0 KECCAK256 SWAP1 POP SWAP2 SWAP1 POP JUMP JUMPDEST PUSH0 PUSH1 0x20 PUSH1 0x1F DUP4 ADD DIV SWAP1 POP SWAP2 SWAP1 POP JUMP JUMPDEST PUSH0 DUP3 DUP3 SHL SWAP1 POP SWAP3 SWAP2 POP POP JUMP JUMPDEST PUSH0 PUSH1 0x8 DUP4 MUL PUSH2 0xD83 PUSH32 0xFFFFFFFFFFFFFFFFFFFFFFFFFFFFFFFFFFFFFFFFFFFFFFFFFFFFFFFFFFFFFFFF DUP3 PUSH2 0xD48 JUMP JUMPDEST PUSH2 0xD8D DUP7 DUP4 PUSH2 0xD48 JUMP JUMPDEST SWAP6 POP DUP1 NOT DUP5 AND SWAP4 POP DUP1 DUP7 AND DUP5 OR SWAP3 POP POP POP SWAP4 SWAP3 POP POP POP JUMP JUMPDEST PUSH0 DUP2 SWAP1 POP SWAP2 SWAP1 POP JUMP JUMPDEST PUSH0 PUSH2 0xDC8 PUSH2 0xDC3 PUSH2 0xDBE DUP5 PUSH2 0xAD5 JUMP JUMPDEST PUSH2 0xDA5 JUMP JUMPDEST PUSH2 0xAD5 JUMP JUMPDEST SWAP1 POP SWAP2 SWAP1 POP JUMP JUMPDEST PUSH0 DUP2 SWAP1 POP SWAP2 SWAP1 POP JUMP JUMPDEST PUSH2 0xDE1 DUP4 PUSH2 0xDAE JUMP JUMPDEST PUSH2 0xDF5 PUSH2 0xDED DUP3 PUSH2 0xDCF JUMP JUMPDEST DUP5 DUP5 SLOAD PUSH2 0xD54 JUMP JUMPDEST DUP3 SSTORE POP POP POP POP JUMP JUMPDEST PUSH0 SWAP1 JUMP JUMPDEST PUSH2 0xE09 PUSH2 0xDFD JUMP JUMPDEST PUSH2 0xE14 DUP2 DUP5 DUP5 PUSH2 0xDD8 JUMP JUMPDEST POP POP POP JUMP JUMPDEST JUMPDEST DUP2 DUP2 LT ISZERO PUSH2 0xE37 JUMPI PUSH2 0xE2C PUSH0 DUP3 PUSH2 0xE01 JUMP JUMPDEST PUSH1 0x1 DUP2 ADD SWAP1 POP PUSH2 0xE1A JUMP JUMPDEST POP POP JUMP JUMPDEST PUSH1 0x1F DUP3 GT ISZERO PUSH2 0xE7C JUMPI PUSH2 0xE4D DUP2 PUSH2 0xD27 JUMP JUMPDEST PUSH2 0xE56 DUP5 PUSH2 0xD39 JUMP JUMPDEST DUP2 ADD PUSH1 0x20 DUP6 LT ISZERO PUSH2 0xE65 JUMPI DUP2 SWAP1 POP JUMPDEST PUSH2 0xE79 PUSH2 0xE71 DUP6 PUSH2 0xD39 JUMP JUMPDEST DUP4 ADD DUP3 PUSH2 0xE19 JUMP JUMPDEST POP POP JUMPDEST POP POP POP JUMP JUMPDEST PUSH0 DUP3 DUP3 SHR SWAP1 POP SWAP3 SWAP2 POP POP JUMP JUMPDEST PUSH0 PUSH2 0xE9C PUSH0 NOT DUP5 PUSH1 0x8 MUL PUSH2 0xE81 JUMP JUMPDEST NOT DUP1 DUP4 AND SWAP2 POP POP SWAP3 SWAP2 POP POP JUMP JUMPDEST PUSH0 PUSH2 0xEB4 DUP4 DUP4 PUSH2 0xE8D JUMP JUMPDEST SWAP2 POP DUP3 PUSH1 0x2 MUL DUP3 OR SWAP1 POP SWAP3 SWAP2 POP POP JUMP JUMPDEST PUSH2 0xECD DUP3 PUSH2 0x78D JUMP JUMPDEST PUSH8 0xFFFFFFFFFFFFFFFF DUP2 GT ISZERO PUSH2 0xEE6 JUMPI PUSH2 0xEE5 PUSH2 0x850 JUMP JUMPDEST JUMPDEST PUSH2 0xEF0 DUP3 SLOAD PUSH2 0xC83 JUMP JUMPDEST PUSH2 0xEFB DUP3 DUP3 DUP6 PUSH2 0xE3B JUMP JUMPDEST PUSH0 PUSH1 0x20 SWAP1 POP PUSH1 0x1F DUP4 GT PUSH1 0x1 DUP2 EQ PUSH2 0xF2C JUMPI PUSH0 DUP5 ISZERO PUSH2 0xF1A JUMPI DUP3 DUP8 ADD MLOAD SWAP1 POP JUMPDEST PUSH2 0xF24 DUP6 DUP3 PUSH2 0xEA9 JUMP JUMPDEST DUP7 SSTORE POP PUSH2 0xF8B JUMP JUMPDEST PUSH1 0x1F NOT DUP5 AND PUSH2 0xF3A DUP7 PUSH2 0xD27 JUMP JUMPDEST PUSH0 JUMPDEST DUP3 DUP2 LT ISZERO PUSH2 0xF61 JUMPI DUP5 DUP10 ADD MLOAD DUP3 SSTORE PUSH1 0x1 DUP3 ADD SWAP2 POP PUSH1 0x20 DUP6 ADD SWAP5 POP PUSH1 0x20 DUP2 ADD SWAP1 POP PUSH2 0xF3C JUMP JUMPDEST DUP7 DUP4 LT ISZERO PUSH2 0xF7E JUMPI DUP5 DUP10 ADD MLOAD PUSH2 0xF7A PUSH1 0x1F DUP10 AND DUP3 PUSH2 0xE8D JUMP JUMPDEST DUP4 SSTORE POP JUMPDEST PUSH1 0x1 PUSH1 0x2 DUP9 MUL ADD DUP9 SSTORE POP POP POP JUMPDEST POP POP POP POP POP POP JUMP INVALID LOG2 PUSH5 0x6970667358 0x22 SLT KECCAK256 0xB3 EXTCODEHASH 0xEC DUP13 0x26 PUSH6 0xBCF11C1D8D26 0x2F PUSH9 0xF7C1E59C9B87F6E054 SHR 0xD3 DUP9 REVERT 0xEA 0x4F 0xF7 DUP12 PUSH16 0x64736F6C634300081600330000000000 "
		},
		"gasEstimates": {
			"creation": {
				"codeDepositCost": "808200",
				"executionCost": "infinite",
				"totalCost": "infinite"
			},
			"external": {
				"name()": "infinite",
				"uploadVideo(string,string,string,string,string,string,string)": "infinite",
				"videoCount()": "2446",
				"videos(uint256)": "infinite"
			}
		},
		"methodIdentifiers": {
			"name()": "06fdde03",
			"uploadVideo(string,string,string,string,string,string,string)": "a1df8fa4",
			"videoCount()": "c61b5f4c",
			"videos(uint256)": "e6821bf5"
		}
	},
	"abi": [
		{
			"inputs": [],
			"stateMutability": "nonpayable",
			"type": "constructor"
		},
		{
			"anonymous": false,
			"inputs": [
				{
					"indexed": false,
					"internalType": "uint256",
					"name": "id",
					"type": "uint256"
				},
				{
					"indexed": false,
					"internalType": "string",
					"name": "hash",
					"type": "string"
				},
				{
					"indexed": false,
					"internalType": "string",
					"name": "title",
					"type": "string"
				},
				{
					"indexed": false,
					"internalType": "string",
					"name": "description",
					"type": "string"
				},
				{
					"indexed": false,
					"internalType": "string",
					"name": "location",
					"type": "string"
				},
				{
					"indexed": false,
					"internalType": "string",
					"name": "category",
					"type": "string"
				},
				{
					"indexed": false,
					"internalType": "string",
					"name": "thumbnailHash",
					"type": "string"
				},
				{
					"indexed": false,
					"internalType": "string",
					"name": "date",
					"type": "string"
				},
				{
					"indexed": false,
					"internalType": "address",
					"name": "author",
					"type": "address"
				}
			],
			"name": "VideoUploaded",
			"type": "event"
		},
		{
			"inputs": [],
			"name": "name",
			"outputs": [
				{
					"internalType": "string",
					"name": "",
					"type": "string"
				}
			],
			"stateMutability": "view",
			"type": "function"
		},
		{
			"inputs": [
				{
					"internalType": "string",
					"name": "_videoHash",
					"type": "string"
				},
				{
					"internalType": "string",
					"name": "_title",
					"type": "string"
				},
				{
					"internalType": "string",
					"name": "_description",
					"type": "string"
				},
				{
					"internalType": "string",
					"name": "_location",
					"type": "string"
				},
				{
					"internalType": "string",
					"name": "_category",
					"type": "string"
				},
				{
					"internalType": "string",
					"name": "_thumbnailHash",
					"type": "string"
				},
				{
					"internalType": "string",
					"name": "_date",
					"type": "string"
				}
			],
			"name": "uploadVideo",
			"outputs": [],
			"stateMutability": "nonpayable",
			"type": "function"
		},
		{
			"inputs": [],
			"name": "videoCount",
			"outputs": [
				{
					"internalType": "uint256",
					"name": "",
					"type": "uint256"
				}
			],
			"stateMutability": "view",
			"type": "function"
		},
		{
			"inputs": [
				{
					"internalType": "uint256",
					"name": "",
					"type": "uint256"
				}
			],
			"name": "videos",
			"outputs": [
				{
					"internalType": "uint256",
					"name": "id",
					"type": "uint256"
				},
				{
					"internalType": "string",
					"name": "hash",
					"type": "string"
				},
				{
					"internalType": "string",
					"name": "title",
					"type": "string"
				},
				{
					"internalType": "string",
					"name": "description",
					"type": "string"
				},
				{
					"internalType": "string",
					"name": "location",
					"type": "string"
				},
				{
					"internalType": "string",
					"name": "category",
					"type": "string"
				},
				{
					"internalType": "string",
					"name": "thumbnailHash",
					"type": "string"
				},
				{
					"internalType": "string",
					"name": "date",
					"type": "string"
				},
				{
					"internalType": "address",
					"name": "author",
					"type": "address"
				}
			],
			"stateMutability": "view",
			"type": "function"
		}
	]
}